{
  "address": "0xe7f1725E7734CE288F8367e1Bb143E90bb3F0512",
  "abi": [
    {
      "inputs": [
        {
          "internalType": "address",
          "name": "priceFeedAddress",
          "type": "address"
        }
      ],
      "stateMutability": "nonpayable",
      "type": "constructor"
    },
    {
      "stateMutability": "payable",
      "type": "fallback"
    },
    {
      "inputs": [],
      "name": "MINIMUM_USD",
      "outputs": [
        {
          "internalType": "uint256",
          "name": "",
          "type": "uint256"
        }
      ],
      "stateMutability": "view",
      "type": "function"
    },
    {
      "inputs": [
        {
          "internalType": "address",
          "name": "",
          "type": "address"
        }
      ],
      "name": "addressToAmountFounded",
      "outputs": [
        {
          "internalType": "uint256",
          "name": "",
          "type": "uint256"
        }
      ],
      "stateMutability": "view",
      "type": "function"
    },
    {
      "inputs": [],
      "name": "fund",
      "outputs": [],
      "stateMutability": "payable",
      "type": "function"
    },
    {
      "inputs": [
        {
          "internalType": "uint256",
          "name": "",
          "type": "uint256"
        }
      ],
      "name": "funders",
      "outputs": [
        {
          "internalType": "address",
          "name": "",
          "type": "address"
        }
      ],
      "stateMutability": "view",
      "type": "function"
    },
    {
      "inputs": [],
      "name": "i_owner",
      "outputs": [
        {
          "internalType": "address",
          "name": "",
          "type": "address"
        }
      ],
      "stateMutability": "view",
      "type": "function"
    },
    {
      "inputs": [],
      "name": "priceFeed",
      "outputs": [
        {
          "internalType": "contract AggregatorV3Interface",
          "name": "",
          "type": "address"
        }
      ],
      "stateMutability": "view",
      "type": "function"
    },
    {
      "inputs": [],
      "name": "withdraw",
      "outputs": [],
      "stateMutability": "nonpayable",
      "type": "function"
    },
    {
      "stateMutability": "payable",
      "type": "receive"
    }
  ],
  "transactionHash": "0x606bfd560a599d3577d3ea1326f809689359a79ab8e369d5aaa665362be9c710",
  "args": [
    "0x5FbDB2315678afecb367f032d93F642f64180aa3"
  ],
  "numDeployments": 1,
  "solcInputHash": "e4908915f7b2c2dcc472380fef6ed808",
  "bytecode": "0x60a060405234801561001057600080fd5b50604051610e48380380610e4883398181016040528101906100329190610110565b3373ffffffffffffffffffffffffffffffffffffffff1660808173ffffffffffffffffffffffffffffffffffffffff168152505080600260006101000a81548173ffffffffffffffffffffffffffffffffffffffff021916908373ffffffffffffffffffffffffffffffffffffffff1602179055505061013d565b600080fd5b600073ffffffffffffffffffffffffffffffffffffffff82169050919050565b60006100dd826100b2565b9050919050565b6100ed816100d2565b81146100f857600080fd5b50565b60008151905061010a816100e4565b92915050565b600060208284031215610126576101256100ad565b5b6000610134848285016100fb565b91505092915050565b608051610ce961015f600039600081816102e601526104ce0152610ce96000f3fe6080604052600436106100745760003560e01c8063741bef1a1161004e578063741bef1a1461010c578063b60d428814610137578063dba6335f14610141578063dc0d3dff1461016c57610083565b80633ccfd60b1461008d57806369d1c5af146100a45780636b69a592146100e157610083565b36610083576100816101a9565b005b61008b6101a9565b005b34801561009957600080fd5b506100a26102e4565b005b3480156100b057600080fd5b506100cb60048036038101906100c69190610706565b610481565b6040516100d8919061074c565b60405180910390f35b3480156100ed57600080fd5b506100f6610499565b604051610103919061074c565b60405180910390f35b34801561011857600080fd5b506101216104a6565b60405161012e91906107c6565b60405180910390f35b61013f6101a9565b005b34801561014d57600080fd5b506101566104cc565b60405161016391906107f0565b60405180910390f35b34801561017857600080fd5b50610193600480360381019061018e9190610837565b6104f0565b6040516101a091906107f0565b60405180910390f35b681b1ae4d6e2ef5000006101e8600260009054906101000a900473ffffffffffffffffffffffffffffffffffffffff163461052f90919063ffffffff16565b1015610229576040517f08c379a0000000000000000000000000000000000000000000000000000000008152600401610220906108c1565b60405180910390fd5b6000339080600181540180825580915050600190039060005260206000200160009091909190916101000a81548173ffffffffffffffffffffffffffffffffffffffff021916908373ffffffffffffffffffffffffffffffffffffffff16021790555034600160003373ffffffffffffffffffffffffffffffffffffffff1673ffffffffffffffffffffffffffffffffffffffff16815260200190815260200160002060008282546102db9190610910565b92505081905550565b7f000000000000000000000000000000000000000000000000000000000000000073ffffffffffffffffffffffffffffffffffffffff163373ffffffffffffffffffffffffffffffffffffffff1614610372576040517f08c379a000000000000000000000000000000000000000000000000000000000815260040161036990610990565b60405180910390fd5b600067ffffffffffffffff81111561038d5761038c6109b0565b5b6040519080825280602002602001820160405280156103bb5781602001602082028036833780820191505090505b50600090805190602001906103d19291906105fc565b5060003373ffffffffffffffffffffffffffffffffffffffff16476040516103f890610a10565b60006040518083038185875af1925050503d8060008114610435576040519150601f19603f3d011682016040523d82523d6000602084013e61043a565b606091505b505090508061047e576040517f08c379a000000000000000000000000000000000000000000000000000000000815260040161047590610a71565b60405180910390fd5b50565b60016020528060005260406000206000915090505481565b681b1ae4d6e2ef50000081565b600260009054906101000a900473ffffffffffffffffffffffffffffffffffffffff1681565b7f000000000000000000000000000000000000000000000000000000000000000081565b6000818154811061050057600080fd5b906000526020600020016000915054906101000a900473ffffffffffffffffffffffffffffffffffffffff1681565b60008061053b8361056b565b90506000678ac7230489e8000082866105549190610a91565b61055e9190610b02565b9050809250505092915050565b6000808273ffffffffffffffffffffffffffffffffffffffff1663feaf968c6040518163ffffffff1660e01b815260040160a060405180830381865afa1580156105b9573d6000803e3d6000fd5b505050506040513d601f19601f820116820180604052508101906105dd9190610bc0565b5050509150506402540be400816105f49190610c3b565b915050919050565b828054828255906000526020600020908101928215610675579160200282015b828111156106745782518260006101000a81548173ffffffffffffffffffffffffffffffffffffffff021916908373ffffffffffffffffffffffffffffffffffffffff1602179055509160200191906001019061061c565b5b5090506106829190610686565b5090565b5b8082111561069f576000816000905550600101610687565b5090565b600080fd5b600073ffffffffffffffffffffffffffffffffffffffff82169050919050565b60006106d3826106a8565b9050919050565b6106e3816106c8565b81146106ee57600080fd5b50565b600081359050610700816106da565b92915050565b60006020828403121561071c5761071b6106a3565b5b600061072a848285016106f1565b91505092915050565b6000819050919050565b61074681610733565b82525050565b6000602082019050610761600083018461073d565b92915050565b6000819050919050565b600061078c610787610782846106a8565b610767565b6106a8565b9050919050565b600061079e82610771565b9050919050565b60006107b082610793565b9050919050565b6107c0816107a5565b82525050565b60006020820190506107db60008301846107b7565b92915050565b6107ea816106c8565b82525050565b600060208201905061080560008301846107e1565b92915050565b61081481610733565b811461081f57600080fd5b50565b6000813590506108318161080b565b92915050565b60006020828403121561084d5761084c6106a3565b5b600061085b84828501610822565b91505092915050565b600082825260208201905092915050565b7f596f75206e65656420746f2073656e64206174206c6561737420353020555344600082015250565b60006108ab602083610864565b91506108b682610875565b602082019050919050565b600060208201905081810360008301526108da8161089e565b9050919050565b7f4e487b7100000000000000000000000000000000000000000000000000000000600052601160045260246000fd5b600061091b82610733565b915061092683610733565b925082820190508082111561093e5761093d6108e1565b5b92915050565b7f53656e646572206973206e6f74206f776e657200000000000000000000000000600082015250565b600061097a601383610864565b915061098582610944565b602082019050919050565b600060208201905081810360008301526109a98161096d565b9050919050565b7f4e487b7100000000000000000000000000000000000000000000000000000000600052604160045260246000fd5b600081905092915050565b50565b60006109fa6000836109df565b9150610a05826109ea565b600082019050919050565b6000610a1b826109ed565b9150819050919050565b7f43616c6c204661696c6564000000000000000000000000000000000000000000600082015250565b6000610a5b600b83610864565b9150610a6682610a25565b602082019050919050565b60006020820190508181036000830152610a8a81610a4e565b9050919050565b6000610a9c82610733565b9150610aa783610733565b9250828202610ab581610733565b91508282048414831517610acc57610acb6108e1565b5b5092915050565b7f4e487b7100000000000000000000000000000000000000000000000000000000600052601260045260246000fd5b6000610b0d82610733565b9150610b1883610733565b925082610b2857610b27610ad3565b5b828204905092915050565b600069ffffffffffffffffffff82169050919050565b610b5281610b33565b8114610b5d57600080fd5b50565b600081519050610b6f81610b49565b92915050565b6000819050919050565b610b8881610b75565b8114610b9357600080fd5b50565b600081519050610ba581610b7f565b92915050565b600081519050610bba8161080b565b92915050565b600080600080600060a08688031215610bdc57610bdb6106a3565b5b6000610bea88828901610b60565b9550506020610bfb88828901610b96565b9450506040610c0c88828901610bab565b9350506060610c1d88828901610bab565b9250506080610c2e88828901610b60565b9150509295509295909350565b6000610c4682610b75565b9150610c5183610b75565b9250828202610c5f81610b75565b91507f80000000000000000000000000000000000000000000000000000000000000008414600084121615610c9757610c966108e1565b5b8282058414831517610cac57610cab6108e1565b5b509291505056fea2646970667358221220423af12429810c7a22cdbaad85f1ccc3b261978b1ef28e695e10b96ae9f62d9964736f6c63430008130033",
  "devdoc": {
    "kind": "dev",
    "methods": {},
    "version": 1
  },
  "userdoc": {
    "kind": "user",
    "methods": {},
    "version": 1
  },
  "storageLayout": {
    "storage": [
      {
        "astId": 59,
        "contract": "contracts/FundMe.sol:FundMe",
        "label": "funders",
        "offset": 0,
        "slot": "0",
        "type": "t_array(t_address)dyn_storage"
      },
      {
        "astId": 63,
        "contract": "contracts/FundMe.sol:FundMe",
        "label": "addressToAmountFounded",
        "offset": 0,
        "slot": "1",
        "type": "t_mapping(t_address,t_uint256)"
      },
      {
        "astId": 68,
        "contract": "contracts/FundMe.sol:FundMe",
        "label": "priceFeed",
        "offset": 0,
        "slot": "2",
        "type": "t_contract(AggregatorV3Interface)45"
      }
    ],
    "types": {
      "t_address": {
        "encoding": "inplace",
        "label": "address",
        "numberOfBytes": "20"
      },
      "t_array(t_address)dyn_storage": {
        "base": "t_address",
        "encoding": "dynamic_array",
        "label": "address[]",
        "numberOfBytes": "32"
      },
      "t_contract(AggregatorV3Interface)45": {
        "encoding": "inplace",
        "label": "contract AggregatorV3Interface",
        "numberOfBytes": "20"
      },
      "t_mapping(t_address,t_uint256)": {
        "encoding": "mapping",
        "key": "t_address",
        "label": "mapping(address => uint256)",
        "numberOfBytes": "32",
        "value": "t_uint256"
      },
      "t_uint256": {
        "encoding": "inplace",
        "label": "uint256",
        "numberOfBytes": "32"
      }
    }
  }
}