{
  "address": "0xd09B576564A8A783Ecd13D9Ab6695BdE30D6D2b9",
  "abi": [
    {
      "inputs": [
        {
          "internalType": "address",
          "name": "priceFeedAddress",
          "type": "address"
        }
      ],
      "stateMutability": "nonpayable",
      "type": "constructor"
    },
    {
      "inputs": [],
      "name": "FundMe_NotOwner",
      "type": "error"
    },
    {
      "stateMutability": "payable",
      "type": "fallback"
    },
    {
      "inputs": [],
      "name": "MINIMUM_USD",
      "outputs": [
        {
          "internalType": "uint256",
          "name": "",
          "type": "uint256"
        }
      ],
      "stateMutability": "view",
      "type": "function"
    },
    {
      "inputs": [
        {
          "internalType": "address",
          "name": "",
          "type": "address"
        }
      ],
      "name": "addressToAmountFounded",
      "outputs": [
        {
          "internalType": "uint256",
          "name": "",
          "type": "uint256"
        }
      ],
      "stateMutability": "view",
      "type": "function"
    },
    {
      "inputs": [],
      "name": "fund",
      "outputs": [],
      "stateMutability": "payable",
      "type": "function"
    },
    {
      "inputs": [
        {
          "internalType": "uint256",
          "name": "",
          "type": "uint256"
        }
      ],
      "name": "funders",
      "outputs": [
        {
          "internalType": "address",
          "name": "",
          "type": "address"
        }
      ],
      "stateMutability": "view",
      "type": "function"
    },
    {
      "inputs": [],
      "name": "i_owner",
      "outputs": [
        {
          "internalType": "address",
          "name": "",
          "type": "address"
        }
      ],
      "stateMutability": "view",
      "type": "function"
    },
    {
      "inputs": [],
      "name": "priceFeed",
      "outputs": [
        {
          "internalType": "contract AggregatorV3Interface",
          "name": "",
          "type": "address"
        }
      ],
      "stateMutability": "view",
      "type": "function"
    },
    {
      "inputs": [],
      "name": "withdraw",
      "outputs": [],
      "stateMutability": "nonpayable",
      "type": "function"
    },
    {
      "stateMutability": "payable",
      "type": "receive"
    }
  ],
  "transactionHash": "0x64d2d94cfda2dcee72fa2e4066266877b2e8a1affb611e26081333a6ba8f3d84",
  "args": [
    "0x694AA1769357215DE4FAC081bf1f309aDC325306"
  ],
  "numDeployments": 2,
  "solcInputHash": "f753f9fa2d4ea0bb65d41703c308755b",
  "bytecode": "0x60a060405234801561001057600080fd5b50604051610dd3380380610dd383398181016040528101906100329190610110565b3373ffffffffffffffffffffffffffffffffffffffff1660808173ffffffffffffffffffffffffffffffffffffffff168152505080600260006101000a81548173ffffffffffffffffffffffffffffffffffffffff021916908373ffffffffffffffffffffffffffffffffffffffff1602179055505061013d565b600080fd5b600073ffffffffffffffffffffffffffffffffffffffff82169050919050565b60006100dd826100b2565b9050919050565b6100ed816100d2565b81146100f857600080fd5b50565b60008151905061010a816100e4565b92915050565b600060208284031215610126576101256100ad565b5b6000610134848285016100fb565b91505092915050565b608051610c7461015f600039600081816102e601526104c50152610c746000f3fe6080604052600436106100745760003560e01c8063741bef1a1161004e578063741bef1a1461010c578063b60d428814610137578063dba6335f14610141578063dc0d3dff1461016c57610083565b80633ccfd60b1461008d57806369d1c5af146100a45780636b69a592146100e157610083565b36610083576100816101a9565b005b61008b6101a9565b005b34801561009957600080fd5b506100a26102e4565b005b3480156100b057600080fd5b506100cb60048036038101906100c691906106fd565b610478565b6040516100d89190610743565b60405180910390f35b3480156100ed57600080fd5b506100f6610490565b6040516101039190610743565b60405180910390f35b34801561011857600080fd5b5061012161049d565b60405161012e91906107bd565b60405180910390f35b61013f6101a9565b005b34801561014d57600080fd5b506101566104c3565b60405161016391906107e7565b60405180910390f35b34801561017857600080fd5b50610193600480360381019061018e919061082e565b6104e7565b6040516101a091906107e7565b60405180910390f35b681b1ae4d6e2ef5000006101e8600260009054906101000a900473ffffffffffffffffffffffffffffffffffffffff163461052690919063ffffffff16565b1015610229576040517f08c379a0000000000000000000000000000000000000000000000000000000008152600401610220906108b8565b60405180910390fd5b6000339080600181540180825580915050600190039060005260206000200160009091909190916101000a81548173ffffffffffffffffffffffffffffffffffffffff021916908373ffffffffffffffffffffffffffffffffffffffff16021790555034600160003373ffffffffffffffffffffffffffffffffffffffff1673ffffffffffffffffffffffffffffffffffffffff16815260200190815260200160002060008282546102db9190610907565b92505081905550565b7f000000000000000000000000000000000000000000000000000000000000000073ffffffffffffffffffffffffffffffffffffffff163373ffffffffffffffffffffffffffffffffffffffff1614610369576040517f10e0797900000000000000000000000000000000000000000000000000000000815260040160405180910390fd5b600067ffffffffffffffff8111156103845761038361093b565b5b6040519080825280602002602001820160405280156103b25781602001602082028036833780820191505090505b50600090805190602001906103c89291906105f3565b5060003373ffffffffffffffffffffffffffffffffffffffff16476040516103ef9061099b565b60006040518083038185875af1925050503d806000811461042c576040519150601f19603f3d011682016040523d82523d6000602084013e610431565b606091505b5050905080610475576040517f08c379a000000000000000000000000000000000000000000000000000000000815260040161046c906109fc565b60405180910390fd5b50565b60016020528060005260406000206000915090505481565b681b1ae4d6e2ef50000081565b600260009054906101000a900473ffffffffffffffffffffffffffffffffffffffff1681565b7f000000000000000000000000000000000000000000000000000000000000000081565b600081815481106104f757600080fd5b906000526020600020016000915054906101000a900473ffffffffffffffffffffffffffffffffffffffff1681565b60008061053283610562565b90506000678ac7230489e80000828661054b9190610a1c565b6105559190610a8d565b9050809250505092915050565b6000808273ffffffffffffffffffffffffffffffffffffffff1663feaf968c6040518163ffffffff1660e01b815260040160a060405180830381865afa1580156105b0573d6000803e3d6000fd5b505050506040513d601f19601f820116820180604052508101906105d49190610b4b565b5050509150506402540be400816105eb9190610bc6565b915050919050565b82805482825590600052602060002090810192821561066c579160200282015b8281111561066b5782518260006101000a81548173ffffffffffffffffffffffffffffffffffffffff021916908373ffffffffffffffffffffffffffffffffffffffff16021790555091602001919060010190610613565b5b509050610679919061067d565b5090565b5b8082111561069657600081600090555060010161067e565b5090565b600080fd5b600073ffffffffffffffffffffffffffffffffffffffff82169050919050565b60006106ca8261069f565b9050919050565b6106da816106bf565b81146106e557600080fd5b50565b6000813590506106f7816106d1565b92915050565b6000602082840312156107135761071261069a565b5b6000610721848285016106e8565b91505092915050565b6000819050919050565b61073d8161072a565b82525050565b60006020820190506107586000830184610734565b92915050565b6000819050919050565b600061078361077e6107798461069f565b61075e565b61069f565b9050919050565b600061079582610768565b9050919050565b60006107a78261078a565b9050919050565b6107b78161079c565b82525050565b60006020820190506107d260008301846107ae565b92915050565b6107e1816106bf565b82525050565b60006020820190506107fc60008301846107d8565b92915050565b61080b8161072a565b811461081657600080fd5b50565b60008135905061082881610802565b92915050565b6000602082840312156108445761084361069a565b5b600061085284828501610819565b91505092915050565b600082825260208201905092915050565b7f596f75206e65656420746f2073656e64206174206c6561737420353020555344600082015250565b60006108a260208361085b565b91506108ad8261086c565b602082019050919050565b600060208201905081810360008301526108d181610895565b9050919050565b7f4e487b7100000000000000000000000000000000000000000000000000000000600052601160045260246000fd5b60006109128261072a565b915061091d8361072a565b9250828201905080821115610935576109346108d8565b5b92915050565b7f4e487b7100000000000000000000000000000000000000000000000000000000600052604160045260246000fd5b600081905092915050565b50565b600061098560008361096a565b915061099082610975565b600082019050919050565b60006109a682610978565b9150819050919050565b7f43616c6c204661696c6564000000000000000000000000000000000000000000600082015250565b60006109e6600b8361085b565b91506109f1826109b0565b602082019050919050565b60006020820190508181036000830152610a15816109d9565b9050919050565b6000610a278261072a565b9150610a328361072a565b9250828202610a408161072a565b91508282048414831517610a5757610a566108d8565b5b5092915050565b7f4e487b7100000000000000000000000000000000000000000000000000000000600052601260045260246000fd5b6000610a988261072a565b9150610aa38361072a565b925082610ab357610ab2610a5e565b5b828204905092915050565b600069ffffffffffffffffffff82169050919050565b610add81610abe565b8114610ae857600080fd5b50565b600081519050610afa81610ad4565b92915050565b6000819050919050565b610b1381610b00565b8114610b1e57600080fd5b50565b600081519050610b3081610b0a565b92915050565b600081519050610b4581610802565b92915050565b600080600080600060a08688031215610b6757610b6661069a565b5b6000610b7588828901610aeb565b9550506020610b8688828901610b21565b9450506040610b9788828901610b36565b9350506060610ba888828901610b36565b9250506080610bb988828901610aeb565b9150509295509295909350565b6000610bd182610b00565b9150610bdc83610b00565b9250828202610bea81610b00565b91507f80000000000000000000000000000000000000000000000000000000000000008414600084121615610c2257610c216108d8565b5b8282058414831517610c3757610c366108d8565b5b509291505056fea2646970667358221220bbb86f1d520963b768e9a4c5e1f47f79a4e63e4988c5e9b7d95ca5d2ef7624ae64736f6c63430008130033",
  "devdoc": {
    "kind": "dev",
    "methods": {},
    "version": 1
  },
  "userdoc": {
    "kind": "user",
    "methods": {},
    "version": 1
  },
  "storageLayout": {
    "storage": [
      {
        "astId": 61,
        "contract": "contracts/FundMe.sol:FundMe",
        "label": "funders",
        "offset": 0,
        "slot": "0",
        "type": "t_array(t_address)dyn_storage"
      },
      {
        "astId": 65,
        "contract": "contracts/FundMe.sol:FundMe",
        "label": "addressToAmountFounded",
        "offset": 0,
        "slot": "1",
        "type": "t_mapping(t_address,t_uint256)"
      },
      {
        "astId": 70,
        "contract": "contracts/FundMe.sol:FundMe",
        "label": "priceFeed",
        "offset": 0,
        "slot": "2",
        "type": "t_contract(AggregatorV3Interface)45"
      }
    ],
    "types": {
      "t_address": {
        "encoding": "inplace",
        "label": "address",
        "numberOfBytes": "20"
      },
      "t_array(t_address)dyn_storage": {
        "base": "t_address",
        "encoding": "dynamic_array",
        "label": "address[]",
        "numberOfBytes": "32"
      },
      "t_contract(AggregatorV3Interface)45": {
        "encoding": "inplace",
        "label": "contract AggregatorV3Interface",
        "numberOfBytes": "20"
      },
      "t_mapping(t_address,t_uint256)": {
        "encoding": "mapping",
        "key": "t_address",
        "label": "mapping(address => uint256)",
        "numberOfBytes": "32",
        "value": "t_uint256"
      },
      "t_uint256": {
        "encoding": "inplace",
        "label": "uint256",
        "numberOfBytes": "32"
      }
    }
  }
}